:100000000A128A11FC2F00308A000408840A820731
:100010000034C034F934A434B03499349234823486
:10002000F834803490343F3406345B344F346634D3
:0A0030006D347D3407347F346F34E3
:100C7A00F0007008013E84000A128A11032008005D
:100C8A008312031308150730F1007D30F000F00BD2
:100C9A004C2EF10B4C2E8312031308110730F1006E
:100CAA007D30F000F00B572EF10B572E08008312FF
:100CBA00031308140730F1007D30F000F00B632EA7
:100CCA00F10B632E8312031308100730F1007D30F5
:100CDA00F000F00B6E2EF10B6E2E0800F600F801F4
:100CEA000830780203180800780AF2007608F30040
:100CFA00F401822E0310F30DF40DF20B7F2EF31F75
:100D0A00882E0130892E0030F5007508F700770C1F
:100D1A0083120313031C8810031888140A128A11F9
:100D2A005C260A128A110130F2007208F807752E41
:100D3A008316031388018312031388018312031392
:100D4A00B201B3013308803AFF0081307F02031DEC
:100D5A00B02EF43032020318A32E83120313330881
:100D6A00FA003208F9000430B1003108FB000A1217
:100D7A008A116E270A128A11013083120313B207ED
:100D8A000318B30A0030B307A72EF601F31FD42EB7
:100D9A00F209F309F20A0319F30AF601F60AF11F36
:100DAA00DB2EF009F109F00A0319F10A700871043F
:100DBA000319082FF501F50AF11BEF2E0130031074
:100DCA00F00DF10DFF3E031DE42E0130F40074080E
:100DDA00F507E12E71087302031DF52E70087202E1
:100DEA00031CFD2E7008F2027108031CF303F302C0
:100DFA0001300310F10CF00CFF3E031DFE2E0130F2
:100E0A00F502031DEF2E76080319102FF209F309D4
:100E1A00F20A0319F30A7308F1007208F0000800D5
:100E2A00F601F11F1F2FF009F109F00A0319F10A5F
:100E3A00F601F60AF31F2A2FF209F309F20A031937
:100E4A00F30A0130F4007408F606F701F801700895
:100E5A0071040319612FF501F50AF11B402F0130C6
:100E6A000310F00DF10DFF3E031D352F0130F40084
:100E7A007408F507322F01300310F70DF80DFF3E05
:100E8A00031D412F71087302031D4D2F7008720252
:100E9A00031C562F7008F2027108031CF303F302B5
:100EAA00771401300310F10CF00CFF3E031D572F8D
:100EBA000130F502031D402F76080319692FF7093F
:100ECA00F809F70A0319F80A7808F1007708F00018
:100EDA00080083120313B001AB0179087A040319DD
:100EEA00A72F0A30F0000030F1007A08F3007908E1
:100EFA00F2000A128A11CA260A128A117008FC0024
:100F0A007C0883120313AA002A08FC003008203E3A
:100F1A0084007C08831380000130FC007C08B00741
:100F2A000A30F0000030F1007A08F3007908F20084
:100F3A000A128A1115270A128A117108FA00700812
:100F4A00F900722F831203133008FC00FD017C089C
:100F5A00AC007D08AD002D08803AFC0080307C0290
:100F6A00031DB92F7B082C020318C92F8312031300
:100F7A002C08203E8400831380010130AC0703183B
:100F8A00AD0A0030AD07B02F83120313AE01AF01D3
:100F9A002F08803AFC0080307C02031DD62F7B0884
:100FAA002E020318F82F831203132E08203E840002
:100FBA00831300080A128A113D260A128A11FC00BC
:100FCA007C0883120313AB002B080A128A117326BA
:100FDA000A128A11013083120313AE070318AF0AEB
:100FEA000030AF07CD2F0A128A1145260800830167
:060FFA000A128A119D2E6F
:02400E007A3FF7
:00000001FF
